:020000040000FA
:060000000A128A1110280B
:10000800FE00030EF0000A08F100831203137F08B4
:10001800F2000A168A11B92A0A128A111328F9015C
:10002800FA018313663084006E300A128A150120A3
:100038000A128A11A0308400C0300A128A150120E1
:100048000A128A1183010A128A112A28033083129C
:10005800031392047830920412158C10831603133C
:100068008C140B178B170A168A1546260A128A1142
:100078000A168A110D210A128A1183160313D20156
:10008800D301C301C401CE01CF012D30A600003039
:10009800A7000130F3000030F4000A168A15242660
:1000A8000A128A110230F3000030F4000A168A1589
:1000B80024260A128A110330F3000030F4000A16CD
:1000C8008A1524260A128A11831203130714871427
:1000D800E601E70183160313230883120313A30021
:1000E80083160313220883120313A2008316031333
:1000F800210883120313A100831603132008831217
:100108000313A0000030A7000030A6000030A500AF
:100118000030A4000A128A11AC270A128A11031CA3
:10012800962897289D280A168A112F250A128A11BF
:100138003E2B0A168A11A8200A128A11F701F70A1B
:1001480001300A168A11B5200A128A111430831256
:100158000313A0008030A1000A168A1574270A121A
:100168008A11023083160313C0004008F7000230DA
:100178000A168A11B5200A128A110A168A11F5265A
:100188000A128A118312031307148714851CCD28B9
:10019800CE28EB28413083160313C100ED30C00090
:1001A800C00BD428C10BD428D9288312031385186F
:1001B800DE28DF28D928413083160313C100ED302B
:1001C800C000C00BE528C10BE528EA28562B861F7E
:1001D800EE28EF28FC29413083160313C100ED30C7
:1001E800C000C00BF528C10BF528FA2883120313A9
:1001F800861BFF280029FA28413083160313C10003
:10020800ED30C000C00B0629C10B06290B29831647
:100218000313230883120313C7008316031322084A
:1002280083120313C60083160313210883120313D2
:10023800C50083160313200883120313C4000A168B
:100248008A113D220A128A11831203134508EB0012
:100258004408EA0083160313230883120313A30038
:1002680083160313220883120313A20083160313B1
:10027800210883120313A100831603132008831295
:100288000313A0004030A7000030A6000030A500EE
:100298000030A4000A168A11CF230A128A11031CFF
:1002A80056295729F6298316031344088312031382
:1002B800A10083160313430883120313A000CB3055
:1002C800A2000030A3000130A4000030A5000130D6
:1002D800A6000030A7000130A8000030A9000230B5
:1002E800AA000030AB000A128A1193260A128A115A
:1002F80083120313210883160313D50083120313F3
:10030800200883160313D4005508C4005408C300FA
:100318000130F3000030F4000A168A1524260A1268
:100328008A11403083120313B3000030B20000304A
:10033800B1000030B000831603132308831203139F
:10034800B70083160313220883120313B60083161B
:100358000313210883120313B5008316031320081F
:1003680083120313B4000A168A1569260A128A1121
:1003780083120313330883160313A3008312031392
:10038800320883160313A20083120313310883165D
:100398000313A10083120313300883160313A0006C
:1003A8000A168A11A8200A128A11F701F70A0130E1
:1003B8000A168A11B5200A128A110A168A11F52618
:1003C8000A128A11153083160313C2004B30C1007C
:1003D800BD30C000C00BEE29C10BEE29C20BEE29BF
:1003E800F529C6280A168A1141230A128A11C62835
:1003F800081CFF29002A132B413083160313C10060
:10040800ED30C000C00B062AC10B062A0B2A831246
:1004180003130818102A112A0B2A413083160313D4
:10042800C100ED30C000C00B172AC10B172A1C2AC7
:1004380083160313230883120313A30083160313DD
:10044800220883120313A2008316031321088312C0
:100458000313A10083160313200883120313A000BB
:100468003F30A7008030A6000030A5000030A4006F
:100478000A168A11CF230A128A11031C442A452A14
:10048800F629831603134F0883120313A10083165A
:1004980003134E0883120313A0004030A20000305B
:1004A800A3000130A4000030A5000130A6000030F0
:1004B800A7000230A8000030A9000130AA000030CF
:1004C800AB000A128A1193260A128A1183120313A7
:1004D800210883160313D5008312031320088316FB
:1004E8000313D4005508CF005408CE0002308316F9
:1004F8000313C2008630C1009830C000C00B822AA6
:10050800C10B822AC20B822A0000831603134F08EC
:1005180083120313A100831603134E0883120313D7
:10052800A0004030A2000030A3000030A400A500C5
:100538000130A6000030A7000230A8000030A90052
:100548000130AA000030AB000A128A1193260A1261
:100558008A1183120313210883160313D50083120B
:100568000313200883160313D4005508CF0054083A
:10057800CE000230F3000030F4000A168A15242653
:100588000A128A113F3083120313B3008030B2007D
:100598000030B1000030B000831603132308831223
:1005A8000313B70083160313220883120313B6003C
:1005B80083160313210883120313B500831603134C
:1005C800200883120313B4000A168A1569260A1232
:1005D8008A1183120313330883160313A3008312AB
:1005E8000313320883160313A2008312031331087E
:1005F80083160313A1008312031330088316031311
:10060800A0000A168A11A8200A128A11F701F70A0F
:1006180001300A168A11B5200A128A11E129881CAC
:10062800162B172BC628413083160313C100ED3053
:10063800C000C00B1D2BC10B1D2B222B83120313D3
:100648008818272B282B222B413083160313C1002F
:10065800ED30C000C00B2E2BC10B2E2B332B0030DE
:1006680083160313A3000030A2000030A10000305D
:10067800A00041280A168A11A8200A128A11F70137
:10068800F70A01300A168A11B5200A128A116E304B
:1006980083120313A0008030A1000A168A1574275C
:1006A8000A128A1183160313530883120313D30003
:1006B80083160313520883120313D2001C30D4008C
:1006C8000030D5000A168A11EC250A128A11831205
:1006D8000313530883160313D50083120313520818
:1006E80083160313D4005508D3005408D2001030E1
:1006F80083160313C2003930C1000D30C000C00B8F
:10070800832BC10B832BC20B832B83160313A801E6
:10071800A901CA01CB01CC01CD014D08803AFF00E7
:1007280080307F02031D9A2B1A304C02031C9D2B2C
:100738009E2B9F2BC72B0A128A1509200A128A1191
:10074800740883160313CB007308CA004B08803A59
:10075800C0002908803A4002031DB42B28084A0229
:10076800031CB72BB82BBE2B831603134B08A90009
:100778004A08A800013083160313CC070318CD0AD2
:100788000030CD07912B83120313871DCC2BCD2B63
:100798002D2C831603132B08803AFF0080307F022C
:1007A800031DD82B59302A02031CDB2BDC2B2D2CE4
:1007B80083160313C5012908803AFF0081307F02A0
:1007C800031DE82B20302802031CEB2BEC2B1D2CDF
:1007D800831603132908803AFF0081307F02031D26
:1007E800F72B303028020318FA2BFB2B1D2C83160D
:1007F80003132B08803AFF0080307F02031D062C6C
:100808005B302A02031C092C0A2C1D2C83160313A7
:100818002B08803AFF0080307F02031D152CC23060
:100828002A020318182C192C1D2C83160313C50132
:10083800C50A831603134508C000C1014008D0004B
:100848004108D1002D30A6000030A700C801C90119
:10085800F92C83120313871D322C332CA82C8316F2
:1008680003132B08803AFF0080307F02031D3E2CC3
:100878004C302A02031C412C422CA82C831603134B
:100888002B08803AFF0080307F02031D4D2C583022
:100898002A020318502C512CA82C83160313C601C6
:1008A8002908803AFF0081307F02031D5D2C20302B
:1008B8002802031C602C612C922C83160313290830
:1008C800803AFF0081307F02031D6C2C30302802F3
:1008D80003186F2C702C922C831603132B08803A64
:1008E800FF0080307F02031D7B2C1F302A02031C6F
:1008F8007E2C7F2C922C831603132B08803AFF0042
:1009080080307F02031D8A2C50302A0203188D2C58
:100918008E2C922C83160313C601C60A8316031362
:100928004608C000C1014008D0004108D100500865
:1009380051040319A02CA12CA32CA601A701013056
:10094800C8000030C900F92C83160313C701290811
:10095800803AFF0081307F02031DB42C203028022A
:10096800031CB72CB82CE92C831603132908803AEA
:10097800FF0081307F02031DC32C3030280203188A
:10098800C62CC72CE92C831603132B08803AFF00CA
:1009980080307F02031DD22C1F302A02031CD52C65
:1009A800D62CE92C831603132B08803AFF008030DD
:1009B8007F02031DE12C50302A020318E42CE52C99
:1009C800E92C83160313C701C70A831603134708C4
:1009D800C000C1014008D0004108D10050085104AE
:1009E8000319F72CF82CA32CA12C50085104031937
:1009F800FE2CFF2C1E2E480849040319042D052D32
:100A0800452D3E3083120313A3004C30A200CC3096
:100A1800A100CD30A000831603132308831203130B
:100A2800A70083160313220883120313A600831654
:100A38000313210883120313A50083160313200848
:100A480083120313A4000A128A150F220A128A11AC
:100A580083120313230883160313A30083120313BB
:100A6800220883160313A200831203132108831696
:100A78000313A10083120313200883160313A00095
:100A8800842D3E3083120313A300AB30A2008530BF
:100A9800A1001F30A0008316031323088312031339
:100AA800A70083160313220883120313A6008316D4
:100AB8000313210883120313A500831603132008C8
:100AC80083120313A4000A128A150F220A128A112C
:100AD80083120313230883160313A300831203133B
:100AE800220883160313A200831203132108831616
:100AF8000313A10083120313200883160313A00015
:100B08000A168A11A8200A128A11F701F70A013079
:100B18000A168A11B5200A128A110A168A11F526B0
:100B28000A128A11831203138710831603135308BA
:100B380083120313A10083160313520883120313AD
:100B4800A0003230A2000030A3000030A400A500AD
:100B58000130A6000030A7000330A8000030A9002B
:100B68000330AA000030AB000A128A1193260A1239
:100B78008A1183120313210883160313D5008312E5
:100B88000313200883160313D4005508D300540810
:100B9800D200083083160313C2001B30C100263070
:100BA800C000C00BD52DC10BD52DC20BD52D000013
:100BB8002D3083160313A6000030A70053088312B4
:100BC8000313A10083160313520883120313A00012
:100BD8004E30A2000030A3000130A4000030A50070
:100BE8000130A6000030A7000330A8000030A9009B
:100BF8000330AA000030AB000A128A1193260A12A9
:100C08008A1183120313210883160313D500831254
:100C18000313200883160313D4000330F3000030B5
:100C2800F4000A168A1524260A128A11831203135D
:100C38008714892E0A168A11A8200A128A11F70128
:100C4800F70A01300A168A11B5200A128A113530BE
:100C580083120313A0008030A1000A168A15742796
:100C68000A128A11013083160313A4000030A5006C
:100C7800530883120313A100831603135208831227
:100C88000313A0001C30A2000030A3000130A40010
:100C98000030A5000130A6000030A7000330A800EE
:100CA8000030A9000230AA000030AB000A128A11F5
:100CB80093260A128A118312031321088316031339
:100CC800D50083120313200883160313D4000330BE
:100CD800F3000030F4000A168A1524260A128A1135
:100CE8000B3083160313C2002630C1005D30C000EC
:100CF800C00B7C2EC10B7C2EC20B7C2E83160313DB
:100D0800A401A5018312031307142D3083160313BE
:100D1800A6000030A70041280A128A111028831261
:100D280003132108B1002008B000AC01AD01972FD2
:100D38008312031324032504031DA32EA42EC12EFE
:100D48003108803AFF0080307F02031DAD2E043049
:100D58003002031CB02EB12EB82E013083120313BB
:100D6800B0000030B1001E2F013083120313B0070A
:100D78000318B10A0030B1071E2F3108803AFF006E
:100D880080307F02031DCA2E023030020318CD2E98
:100D9800CE2ED52E043083120313B0000030B100DC
:100DA8001E2FFF3083120313B0070318B10AFF3058
:100DB800B1071E2F26032704031DE32EE42EE92E78
:100DC8000A30AE000030AF002E2F0130AE000030E8
:100DD800AF002E2F26032704031DF32EF42EF92E21
:100DE8000930AE000030AF002E2F0230AE000030C8
:100DF800AF002E2F26032704031D032F042F092FCE
:100E08000530AE000030AF002E2F0430AE000030A9
:100E1800AF002E2F26032704031D132F142F192F7D
:100E28000630AE000030AF002E2F0830AE00003084
:100E3800AF002E2F3108003A0319232F0E2F300848
:100E4800013A0319DE2E033A0319EE2E013A03196B
:100E5800FE2E0E2F28032904031D332F342F462F6F
:100E68000F30F300730885052E08F30003300310D4
:100E7800F30DFF3E031D3B2F0310730DF4007408A0
:100E88008504672F023028062904031D4C2F4D2F97
:100E9800562FF030F300730886052E08F300730808
:100EA8008604672F0F30F300730887052E08F300B8
:100EB80003300310F30DFF3E031D5D2F0310730D68
:100EC800F400740887042A032B04031D6C2F6D2F6C
:100ED800772F3430F400F130F300F30B712FF40B5B
:100EE800712F762F8F2F02302A062B04031D7D2F9A
:100EF8007E2F872FC330F400CD30F300F30B822F01
:100F0800F40B822F8F2F7530F400E130F300F30BD0
:100F18008B2FF40B8B2F013083120313AC070318AC
:100F2800AD0A0030AD072D08803AF3002308803A57
:100F38007302031DA12F22082C02031CA42FA52F26
:100F48009C2E831203133108A1003008A00008006A
:100F58000030831203132005F30000302105F4004C
:100F680080302205F5007F302305F60076087504E9
:100F780074047304031DC12FC22FCA2F0030A300AD
:100F88000030A2000030A1000030A000003024058D
:100F9800F30000302505F40080302605F5007F3089
:100FA8002705F6007608750474047304031DDD2F05
:100FB800DE2FE62F0030A7000030A6000030A50085
:100FC8000030A40027082306031DF42F2608220654
:100FD800031DF42F25082106031DF42F24082006DD
:100FE8000319F72FF82FFA2F0310FB2F031408000B
:1010020064008001840A04060319003404060228DD
:10101200831203139F149F180F2810280C281E08F0
:10102200F500F6017508F7007608F8007808F60072
:101032007708F5007508F600F5017508F7007608DF
:10104200F8007708831603131E04F5007808F600EB
:101052007508F7007608F8007808F4007708F300BE
:1010620008008312031331088039B2003208BB0032
:101072003108B2003207B3003308C200B01F422861
:101082004328442842144208031948284928592869
:10109200420A031D4D284E2856280030B100003068
:1010A200B0000030AF000030AE00B017B1016128CF
:1010B2000030B1000030B0000030AF000030AE00B0
:1010C2002D088039B2003208BB062D08B200320763
:1010D200B3003308C300AC1F6F2870287128431473
:1010E20043080319752876288628430A031D7A289F
:1010F2007B2883280030AD000030AC000030AB000C
:101102000030AA00AC17AD018E280030AD000030CF
:10111200AC000030AB000030AA002D082C042B04D8
:101122002A04031D95289628AF280030B10000300C
:10113200B0000030AF000030AE008030B0047F302D
:10114200B1043B08B2003208B1043108AD003008E6
:10115200AC002F08AB002E08AA000E2A4208031D7D
:10116200B328B428BD280030AD000030AC000030F8
:10117200AB000030AA000E2A4208B200B3013308C5
:10118200B50043083202B400031CB50334087F3EA5
:10119200BC0035080318013E003EBD003108BA000C
:1011A2003008B9002F08B8002E08B7000030B1008F
:1011B2000030B0000030AF000030AE000030C1009F
:1011C2000030C0000030BF000030BE00C301332930
:1011D20043080319ED28EE280E290130B20003104E
:1011E200B70DB80DB90DBA0DB20BF0280130B2002F
:1011F2000310AE0DAF0DB00DB10DB20BF928C11F2A
:101202000329042905292E140130B2000310BE0D52
:10121200BF0DC00DC10DB20B07292D083A02031DE7
:101222001C292C083902031D1C292B083802031D16
:101232001C292A083702031C1F2920292F2941179C
:101242002A08B7022B08031C2B0FB8022C08031C18
:101252002C0FB9022D08031C2D0FBA020130B20067
:101262003208C3071A304302031C38293929E928F6
:101272003A083904380437040319402941296029FE
:101282003E1460290130B2000310AE0DAF0DB00D57
:10129200B10DB20B4529C11F4F29502951292E14D6
:1012A2000130B2000310BE0DBF0DC00DC10DB20B57
:1012B2005329FF30BC070318BD0AFF30BD07B01F1A
:1012C200632964294329C301C11F68296929852922
:1012D200FF303E05B200FF303F05B300FF3040054E
:1012E200B4007F304105B5003508340433043204BC
:1012F20003197C297D298029C301C30A85292E1C53
:101302008329842985297D294308031989298A2962
:10131200BB290130AE07003003180130AF0700309F
:1013220003180130B007003003180130B107311C37
:101332009B299C29BB292E08B2002F08B300300834
:10134200B4003108B5000130B600350DB50CB40C4F
:10135200B30CB20CB60BA6293508B1003408B000A4
:101362003308AF003208AE000130BC070318BD0AD3
:101372000030BD073D08803AFF0080307F02031D28
:10138200C429FF303C02031CC729C829D629FF30D3
:1013920083120313BC000030BD000030B1000030E6
:1013A200B0000030AF000030AE00831203133D08DE
:1013B200803AFF0080307F02031DE12901303C02A8
:1013C2000318E429E529F22983120313BC01BD01A4
:1013D2000030B1000030B0000030AF000030AE008D
:1013E200BB01831203133C08B2003208C200421C44
:1013F200FB29FC29FE29B017022A7F30B2003208ED
:10140200B0054208B2000310320CB3003308B10039
:101412003B08B2003208B104A62808008312031365
:1014220023088039A8002808F3002308A800280709
:10143200A9002908F500A21F1F2A202A212A7514B3
:1014420075080319252A262A362A750A031D2A2A0F
:101452002B2A332A0030A3000030A2000030A10062
:101462000030A000A217A3013E2A0030A3000030E2
:10147200A2000030A1000030A00027088039A80097
:101482002808F400740873060319482A492A4A2ACC
:1014920073172708A8002807A9002908F400A61F27
:1014A200532A542A552A741474080319592A5A2A99
:1014B2006A2A740A031D5E2A5F2A672A0030A7007F
:1014C2000030A6000030A5000030A400A617A70136
:1014D200722A0030A7000030A6000030A5000030BC
:1014E200A400750874020318772A782ABC2A731F8D
:1014F2007B2A7C2A802A8030A8002808F3067508F7
:10150200A8002808F6007408A8002808F500760844
:10151200A8002808F4002008A8002808F6002408DB
:10152200A8002808A0007608A8002808A40021081E
:10153200A8002808F6002508A8002808A1007608B7
:10154200A8002808A5002208A8002808F6002608F6
:10155200A8002808A2007608A8002808A6002308E8
:10156200A8002808F6002708A8002808A300760883
:10157200A8002808A700F6017408A800A9012908F4
:10158200AB0075082802AA00031CAB032B08803AA3
:10159200FF0080307F02031DD02A1A302A02031C6A
:1015A200D32AD42A152B83120313230822042104DD
:1015B2002004031DDD2ADF2A0130E02A0030A800C2
:1015C2002808F6000030A3000030A2000030A1007D
:1015D2000030A0007408A8002808F5001B2B761C18
:1015E200F32AF42AFF2A760883120313A8000310B1
:1015F200280C0138A9002908F600012B0310F60C6B
:1016020083120313201C062B072B082BF61701301D
:10161200A800230DA30CA20CA10CA00CA80B0A2B52
:101622000130A8002808F50774087502031C1A2B5C
:101632001B2BF02A731B1E2B1F2B6E2B7508031DF1
:10164200232B242B2F2B003083120313A3000030F3
:10165200A2000030A1000030A0009E2C83120313D0
:101662002408A007250803110318013E03193A2B89
:10167200A107260803110318013E0319412BA207F3
:10168200270803110318013E0319482BA307231C43
:101692004B2B4C2B242C761C4F2B502B592B760882
:1016A200A8000310280C0138A9002908F6005B2BBA
:1016B2000310F60C201C5E2B5F2B602BF6170130FB
:1016C200A800230DA30CA20CA10CA00CA80B622B4A
:1016D2000130A8002808F507242C831203132308DD
:1016E200803AFF002708803A7F02031D822B2608DA
:1016F2002202031D822B25082102031D822B2408AE
:1017020020020318852B862BDE2BFF30A800FF302A
:10171200A900FF30AA00FF30AB002408AC00250866
:10172200AD002608AE002708AF002008AC02210851
:10173200031C210F9D2B9E2BAD022208031C220F9E
:10174200A32BA42BAE022308031C230FA92BAA2B25
:10175200AF022C08A8072D0803182D0FB12BB22BAE
:10176200A9072E0803182E0FB72BB82BAA072F088C
:1017720003182F0AAB072B08A3002A08A200290886
:10178200A1002808A0008030A8002808F306F60966
:10179200F60A7608031DCE2BCF2BEC2B0130A007C7
:1017A200003003180130A107003003180130A207EE
:1017B200003003180130A307EC2B2408A0022508EF
:1017C200031C250FA1022608031C260FA2022708CC
:1017D200031C270FA3022308220421042004031D53
:1017E200F32BF42B202C7608031DF82BF92B202C3D
:1017F2000030A3000030A2000030A1000030A000A1
:101802009E2C0130A8000310A00DA10DA20DA30D66
:10181200A80B042CF61F0E2C0F2C102C2014761C57
:10182200132C142C172C0314F60D192C0310F60D7F
:10183200750803191D2C1E2C202C0130F502A21F45
:10184200232C242C022CF401F61F282C292C372CB3
:1018520076087F3903192E2C2F2C322CF401F40A2E
:10186200372C201C352C362C372C2F2C74080319BE
:101872003B2C3C2C702C0130A007003003180130A7
:10188200A107003003180130A2070030031801300D
:10189200A307231C4D2C4E2C702C2008A8002108D5
:1018A200A9002208AA002308AB000130AC002B0DCE
:1018B200AB0CAA0CA90CA80CAC0B582C2B08A3003F
:1018C2002A08A2002908A1002808A000750A031905
:1018D2006B2C6C2C702C0130A8002808F507750AB7
:1018E2000319742C752C7A2C7508031D792C7A2C0B
:1018F200882C0030A3000030A2000030A10000308C
:10190200A0007508031D862C872C882CF301751CFA
:101912008B2C8C2C8E2CA217922C7F30A80028089E
:10192200A2057508A8000310280CA9002908A30025
:10193200F31F9C2C9D2C9E2CA317080083120313CB
:1019420028088039AD002D08B2002808AD002D0707
:10195200AE002E08B800A71FAF2CB02CB12C381443
:1019620038080319B52CB62CC52C380A031DBA2C1D
:10197200BB2CC32C0030A8000030A7000030A6000A
:101982000030A500A717CD2C0030A8000030A7001A
:101992000030A6000030A5002C088039AD002D08CB
:1019A200B2062C08AD002D07AE002E08B700AB1F03
:1019B200DB2CDC2CDD2C371437080319E12CE22C4C
:1019C200F12C370A031DE62CE72CEF2C0030AC007B
:1019D2000030AB000030AA000030A900AB17F92C90
:1019E2000030AC000030AB000030AA000030A9008B
:1019F20037080319FD2CFE2C032D3808031D022D78
:101A0200032D0C2D0030A8000030A7000030A600E6
:101A12000030A500FF2F2508AD002D08F3002B088C
:101A22000A168A15D8260A128A1574088312031315
:101A3200BE007308BD003D08AD00AE01AF01B001AC
:101A42003008B6002F08B5002E08B4002D08B300E8
:101A52003E08AD00AE01AF01B0013008BC002F0856
:101A6200BB002E08BA002D08B9002608AD002D08CB
:101A7200F3002A080A168A15D8260A128A1574084B
:101A820083120313BE007308BD003D08AD00AE0112
:101A9200AF01B0012D08B3072E0803110318013E50
:101AA2000319542DB4072F0803110318013E03191B
:101AB2005B2DB507300803110318013E0319622D8F
:101AC200B6073E08AD00AE01AF01B0012D08B9075F
:101AD2002E0803110318013E0319702DBA072F08AF
:101AE20003110318013E0319772DBB0730080311B8
:101AF2000318013E03197E2DBC072708AD002D08EF
:101B0200F30029080A168A15D8260A128A157408BB
:101B120083120313BE007308BD003D08AD00AE0181
:101B2200AF01B0012D08B3072E0803110318013EBF
:101B320003199C2DB4072F0803110318013E031942
:101B4200A32DB507300803110318013E0319AA2D6E
:101B5200B6073E08AD00AE01AF01B0012D08B907CE
:101B62002E0803110318013E0319B82DBA072F08D6
:101B720003110318013E0319BF2DBB0730080311DF
:101B82000318013E0319C62DBC070830AD0003102F
:101B9200B30DB40DB50DB60DAD0BC82D2608AD00B5
:101BA2002D08F30029080A168A15D8260A128A1562
:101BB200740883120313BE007308BD003D08AD0014
:101BC2003E08AE00AF01B0012D08B3072E08031185
:101BD2000318013E0319EE2DB4072F080311031851
:101BE200013E0319F52DB507300803110318013E14
:101BF2000319FC2DB6072508AD002D08F3002A08AD
:101C02000A168A15D8260A128A1574088312031333
:101C1200BE007308BD003D08AD003E08AE00AF0136
:101C2200B0012D08B3072E0803110318013E031952
:101C32001B2EB4072F0803110318013E0319222E8D
:101C4200B507300803110318013E0319292EB60700
:101C52000830AD000310B30DB40DB50DB60DAD0BCC
:101C62002B2E2508AD002D08F30029080A168A1527
:101C7200D8260A128A15740883120313BE00730849
:101C8200BD003D08AD003E08AE00AF01B0012D0819
:101C9200B3072E0803110318013E0319512EB4078E
:101CA2002F0803110318013E0319582EB5073008F7
:101CB20003110318013E03195F2EB6072608AD0073
:101CC2002D08F3002B080A168A15D8260A128A153F
:101CD200740883120313BE007308BD003D08AD00F3
:101CE2003E08AE00AF01B0012D08B9072E0803115E
:101CF2000318013E03197E2EBA072F080311031899
:101D0200013E0319852EBB07300803110318013E5B
:101D120003198C2EBC072708AD002D08F3002A08F2
:101D22000A168A15D8260A128A1574088312031312
:101D3200BE007308BD003D08AD003E08AE00AF0115
:101D4200B0012D08B9072E0803110318013E03192B
:101D5200AB2EBA072F0803110318013E0319B22E46
:101D6200BB07300803110318013E0319B92EBC0743
:101D72002708AD002D08F3002B080A168A15D8266D
:101D82000A128A15740883120313BE007308BD0079
:101D92003D08AD003E08AE00AF01B00108300310AF
:101DA200AD0DAE0DAF0DB00DFF3E031DD02E2D08B3
:101DB200B9072E0803110318013E0319E12EBA07D1
:101DC2002F0803110318013E0319E82EBB07300840
:101DD20003110318013E0319EF2EBC073308AD00AF
:101DE2003408AE003508AF003608B00018300310D2
:101DF200B00CAF0CAE0CAD0CFF3E031DF82E2D083F
:101E0200B9072E0803110318013E0319092FBA0757
:101E12002F0803110318013E0319102FBB073008C6
:101E220003110318013E0319172FBC070830AD0038
:101E32000310B30DB40DB50DB60DAD0B192F380847
:101E42003707AD00AE01AE0D2D08823EBD002E0853
:101E52000318013EFF3EBE004B2F0130AD000310C0
:101E6200B90DBA0DBB0DBC0DAD0B302FB61F3A2FFD
:101E72003B2F3C2F39140130AD000310B30DB40DCC
:101E8200B50DB60DAD0B3E2FFF30BD070318BE0AD0
:101E9200FF30BE07BB1F4E2F4F2F2E2FB701B61F8D
:101EA200532F542F702FFF303305AD00FF30340510
:101EB200AE00FF303505AF007F303605B000300888
:101EC2002F042E042D040319672F682F6B2FB701DF
:101ED200B70A702F391C6E2F6F2F702F682F37089B
:101EE2000319742F752FA62F0130B907003003187C
:101EF2000130BA07003003180130BB070030031865
:101F02000130BC073C1C862F872FA62F3908AD0055
:101F12003A08AE003B08AF003C08B0000130B10007
:101F2200300DB00CAF0CAE0CAD0CB10B912F3008D4
:101F3200BC002F08BB002E08BA002D08B9000130E2
:101F4200BD070318BE0A0030BE073E08803AFF00F4
:101F520080307F02031DAF2FFF303D02031CB22FE2
:101F6200B32FBE2F7F3083120313BC008030BB001F
:101F72000030BA000030B900F32F831203133E0879
:101F8200803AFF0080307F02031DC92F01303D02DD
:101F92000318CC2FCD2FD92F003083120313BC008E
:101FA2000030BB000030BA000030B900B201F32F9C
:101FB200831203133D08AD002D08B800FF30B905A8
:101FC200FF30BA057F30BB050030BC05381CEA2F54
:101FD200EB2FEC2FBB173808AD0003102D0CAE0011
:101FE2002E08BC003208AD002D08BC043C08A80035
:101FF2003B08A7003A08A6003908A5000800FF1B05
:102002000A2883137F1883170008840A0319FF0A1A
:10201200080010308A000408840A8207003445341C
:102022006C3469346A346134203475346E3461340A
:1020320020346F34703463346934F3346E343A3498
:102042002034003445346C3469346A3461342034C9
:1020520075346E34613420346F34703463346934CF
:102062006F346E343A342034003469346E3473344D
:102072007534663469346334693465346E34743467
:1020820065347334003472346534633468346134D3
:102092007A34613464346F343A342034003449344D
:1020A2006E346734723465347334653420346D347D
:1020B20061347334003463347234653464346934A3
:1020C20074346F3473343A342034003449346E3407
:1020D20067347234653473346534203455346E3465
:1020E20000344234693465346E34763465346E3487
:1020F200693464346F340034453473347034653475
:10210200723465342E342E342E3400344334723417
:1021120065346434693474346F3473340034653430
:102122006E34763461347334653473340034453438
:102132006E347634613473346534003430340034B0
:1021500000300A168A15E8250A168A1101300A1677
:102160008A15E8250A168A11080083120313A200B3
:102170002203031DBC28BD28E22877087F3EA0006B
:102180002008A5002508A00004300310A00CFF3E85
:10219000031DC5282008A1002108A30025080F3928
:1021A000A0002008A40023080A168A15E8250A16AC
:1021B0008A118312031324080A168A15E8250A16C1
:1021C0008A110C2902302206031DE728E8280C2971
:1021D0007708BF3EA0002008A5002508A000043015
:1021E0000310A00CFF3E031DF0282008A1002108C9
:1021F000A30025080F39A0002008A40023080A1610
:102200008A15E8250A168A118312031324080A1670
:102210008A15E8250A168A11080000300A168A1560
:1022200002260A168A113430F800F130F700F70B55
:102230001729F80B17291C2903300A168A15E825D7
:102240000A168A110D30F800FB30F700F70B26292B
:10225000F80B26292B2903300A168A15E8250A16B9
:102260008A111D30F8009130F700F70B3529F80B73
:10227000352903300A168A15E8250A168A11023014
:102280000A168A15E8250A168A1102300A168A15D6
:10229000E8250A168A1108300A168A15E8250A1652
:1022A0008A1100300A168A15E8250A168A110C30A0
:1022B0000A168A15E8250A168A1100300A168A15A8
:1022C000E8250A168A1106300A168A15E8250A1624
:1022D0008A1108008312031386120613103090002F
:1022E0008F018E018616053083120313CF00CF0BAA
:1022F00077297A29831203138612061F80298129E0
:102300007D291014061B85298629822910100F08A3
:10231000D1000E08D0005008F3005108F40000303E
:10232000F41BFF30F500F60001300A168A11732401
:102330000A168A11760883120313B1007508B000DB
:102340007408AF007308AE004030AD00BC30AC0084
:102350003930AB005830AA000A128A1532200A160A
:102360008A11831203132D08C7002C08C6002B08FE
:10237000C5002A08C4000A168A113D220A168A11CD
:10238000831203134508D1004408D0005108CE0041
:102390005008CD00080083120313AB002408A900E5
:1023A0002308A8002608F4002508F3002908F600F1
:1023B0002808F5000A168A15BA270A168A11740821
:1023C00083120313A9007308A8000130A70027088F
:1023D000AB0728082904031DEE29EF29D2292B0871
:1023E0008400831380010130AB022608F400250825
:1023F000F3002408F6002308F5000A168A153A2788
:102400000A168A11730883120313A7002708AA006B
:102410002608F4002508F3002408F6002308F50038
:102420000A168A15BA270A168A117408831203132A
:10243000A4007308A3000A302A02031C202A212AC0
:10244000252A0730A7002708AA073030A700270849
:10245000AA072A08A7002B088400270883138000F6
:102460000130AB0223082404031D372A382AF5293A
:102470000130A7002708AB070800031083120313DD
:10248000460D470DC8004808F8007808031D492A82
:102490004A2A532A0030C7000030C6000030C50069
:1024A0000030C400B82A4408C8004508C9004608DE
:1024B000CA004708CB001F300310CB0CCA0CC90C54
:1024C000C80CFF3E031D5C2A4808CC004C08F700EE
:1024D000C617FF30C405FF30C505FF30C605003004
:1024E000C7059630F802F81F762A772A912A7808CD
:1024F000803A973E03187D2A7E2A7F2A4A2A013095
:102500000310C70CC60CC50CC40CFF3E031D802A6B
:102510000130C8004808F807031D8F2A902A7F2A37
:10252000A82A20307802031C962A972AA32A4A2A2E
:102530000130C8000310C40DC50DC60DC70DC80B72
:102540009A2A0130F8027808031DA72AA82A982A97
:1025500077080319AC2AAD2AB82AC409C509C609E7
:10256000C709C40A0319C50A0319C60A0319C70A09
:1025700008008C102D308316031326062704031D34
:10258000C22AC32AD32A79037A04031DC82AC92A76
:10259000D32A831203130715053083160313920001
:1025A000F901FA010B2B2D3026062704031DD92A29
:1025B000DA2AEC2A79087A04031DDF2AE02AEC2AB9
:1025C000831203130711973083160313920001300F
:1025D000F9000030FA000B2B26082704031DF12A0E
:1025E000F22A002B79037A04031DF72AF82A002B1C
:1025F0008312031307150730831603139200D02AA2
:1026000083120313071195308316031392000130D0
:10261000F9000030FA00013083120313E8070318B1
:10262000E90A0030E9076908803AFF0080307F023C
:10263000031D1C2B19306802031C1F2B202B2E2B73
:1026400083160313240825040319272B282B2E2B6C
:102650000130831203138706E801E9018312031393
:10266000851C332B342B382B0130E6000030E7007B
:102670007208FF0071088A00700E8300FE0E7E0E45
:102680000900013083160313A4000030A5000A16C8
:102690008A11A8200A168A11043083120313A70096
:1026A0002708F70001300A168A11B5200A168A1188
:1026B000783083120313A0008030A1000A168A1517
:1026C00074270A168A11F701F70A02300A168A11CE
:1026D000B5200A168A11273083120313A000803018
:1026E000A1000A168A1574270A168A11153083125A
:1026F0000313A9004B30A800BD30A700A70B7E2B09
:10270000A80B7E2BA90B7E2B852B83160313A4010C
:10271000A5018312031307100A168A11A8200A16AE
:102720008A11023083120313A7002708F700013033
:102730000A168A11B5200A168A1141308312031332
:10274000A0008030A1000A168A1574270A168A1183
:10275000043083120313A7002708F70002300A167B
:102760008A11B5200A168A11813083120313A00042
:102770008030A1000A168A1574270A168A111530AE
:1027800083120313A9004B30A800BD30A700A70B8C
:10279000C72BA80BC72BA90BC72BCE2B08000030CB
:1027A000831203132005F30000302105F40080306C
:1027B0002205F5007F302305F600760875047404C1
:1027C0007304031DE42BE52BED2B0030A300003038
:1027D000A2000030A1000030A00000302405F3006A
:1027E00000302505F40080302605F5007F302705F0
:1027F000F6007608750474047304031D002C012C84
:10280000092C0030A7000030A6000030A5000030E1
:10281000A400A31F0C2C0D2C312C0030F300003031
:10282000F4000030F5008030F6002008F3022108A3
:10283000031C210F1C2C1D2CF4022208031C220F48
:10284000222C232CF5022308031C230F282C292CCF
:10285000F6027608A3007508A2007408A1007308A8
:10286000A000A71F342C352C592C0030F300003069
:10287000F4000030F5008030F6002408F30225084B
:10288000031C250F442C452CF4022608031C260F9C
:102890004A2C4B2CF5022708031C270F502C512CD7
:1028A000F6027608A7007508A6007408A50073084C
:1028B000A4008030A3068030A70627082302031D4A
:1028C0006B2C26082202031D6B2C25082102031DF8
:1028D0006B2C2408200203186E2C6F2C712C031013
:1028E000722C0314080083120313A4002408031994
:1028F0007A2C7B2C8F2CF61F7E2C7F2C8F2C73092F
:10290000A6007409A7007509A8007609A900A60AFF
:102910000319A70A0319A80A0319A90A972C76080C
:10292000A9007508A8007408A7007308A600760817
:10293000750474047304031D9E2C9F2CA82C003076
:10294000F6000030F5000030F4000030F3002E2DCA
:102950009630A0002008A500BA2C0130A000200865
:10296000A50701300310A90CA80CA70CA60CFF3E6C
:10297000031DB22CFE302905031DBF2CC02CAD2C2D
:10298000DC2C0130A0002008A5070130A60700308C
:1029900003180130A707003003180130A8070030E2
:1029A00003180130A90701300310A90CA80CA70CCB
:1029B000A60CFF3E031DD42CFF302905031DE12C7E
:1029C000E22CC12CEE2C0130A5020130A000031036
:1029D000A60DA70DA80DA90DA00BE72CA81BF12C87
:1029E000F22CF82C023025020318F72CF82CE32CDB
:1029F0002518FB2CFC2C042DFF30A605FF30A70565
:102A00007F30A805FF30A9050310A50C2508A000FC
:102A1000A101A201A30118300310A00DA10DA20D68
:102A2000A30DFF3E031D0C2D2008A6042108A704BA
:102A30002208A8042308A90424080319202D212D05
:102A4000262DF61F242D252D262DA9172908F60041
:102A50002808F5002708F4002608F3000800C72D11
:102A600066086704031D352D362DA22D0A168A111E
:102A7000A8200A168A11033083120313CD004D08D3
:102A8000F70001300A168A11B5200A168A11633040
:102A900083120313A0008030A1000A168A15742740
:102AA0000A168A110B3083120313CF002630CE0092
:102AB0005D30CD00CD0B5A2DCE0B5A2DCF0B5A2D9C
:102AC0000A168A11A8200A168A11033083120313EA
:102AD000CD004D08F70001300A168A11B5200A16FC
:102AE0008A11583083120313A0008030A1000A1607
:102AF0008A1574270A168A11053083120313CD0034
:102B00004D08F70002300A168A11B5200A168A11FC
:102B1000893083120313A0008030A1000A168A15A1
:102B200074270A168A110B3083120313CF00263044
:102B3000CE005D30CD00CD0B9B2DCE0B9B2DCF0B52
:102B40009B2DC72D0A168A11A8200A168A11F70193
:102B5000F70A01300A168A11B5200A168A110A16D8
:102B60008A11F5260A168A11F701F70A02300A16A9
:102B70008A11B5200A168A11013083120313A000AE
:102B80008030A1000A168A1574270A168A1183124A
:102B90000313660867040319CE2DCF2D302D413065
:102BA00083120313CE00ED30CD00CD0BD52DCE0B0F
:102BB000D52DDA2D831203138518DF2DE02DDA2DA4
:102BC000413083120313CE00ED30CD00CD0BE62D46
:102BD000CE0BE62DEB2D0800903083120313DC00A2
:102BE0000130DD005308E5005208E400D801D901A6
:102BF0000130E2000030E300DA01DB01D42E831261
:102C0000031358035904031D062E072E242E6508AE
:102C1000803AFF0080307F02031D102E04306402D2
:102C2000031C132E142E1B2E013083120313E400F9
:102C30000030E500812E013083120313E4070318EE
:102C4000E50A0030E507812E6508803AFF008030F4
:102C50007F02031D2D2E023064020318302E312E08
:102C6000382E043083120313E4000030E500812E77
:102C7000FF3083120313E4070318E50AFF30E5076A
:102C8000812E62036304031D462E472E4C2E0A300C
:102C9000E0000030E100912E0130E0000030E10062
:102CA000912E62036304031D562E572E5C2E0930AD
:102CB000E0000030E100912E0230E0000030E10041
:102CC000912E62036304031D662E672E6C2E053061
:102CD000E0000030E100912E0430E0000030E1001F
:102CE000912E62036304031D762E772E7C2E063010
:102CF000E0000030E100912E0830E0000030E100FB
:102D0000912E6508003A0319862E712E6408013A47
:102D10000319412E033A0319512E013A0319612E6A
:102D2000712E0F30D600560887056008D600033094
:102D30000310D60DFF3E031D982E0310560DD7002D
:102D4000570887040A168A116A210A168A11831203
:102D500003134E08DF004D08DE005F08803AD600FE
:102D60005D08803A5602031DB72E5C085E02031808
:102D7000BA2EBB2EC12E831203135F08DD005E083E
:102D8000DC00753083120313D700E030D600D60B79
:102D9000C72ED70BC72E0000013083120313DA07AA
:102DA0000318DB0A0030DB075B08803AD6005508C1
:102DB000803A5602031DDE2E54085A02031CE12EEF
:102DC000E22EFF2D831203135D0883160313AB005D
:102DD000831203135C0883160313AA0083120313E0
:102DE0006508D3006408D20008004D308312031335
:102DF000A0008030A1000A168A1574270A168A11CD
:102E000083160313230883120313C70083160313C7
:102E1000220883120313C6008316031321088312AA
:102E20000313C50083160313200883120313C40081
:102E30000A168A113D220A168A11831203134508C5
:102E4000EB004408EA006B08AD006A08AC000A30E9
:102E5000AE000030AF00AC300A168A15B2260A1652
:102E60008A11AC3083120313A0000030A1000A16AF
:102E70008A1574270A168A118316031323088312EE
:102E80000313AC0083160313220883120313AB0051
:102E900083160313210883120313AA008316031356
:102EA000200883120313A9004230A800C830A700ED
:102EB0000030A6000030A5000A128A159F240A16C9
:102EC0008A11831203132808C7002708C6002608A2
:102ED000C5002508C4000A168A113D220A168A1167
:102EE000831203134508EB004408EA006B08803A9C
:102EF000FF0080307F02031D7F2F64306A02031CB5
:102F0000822F832FBF2F83160313230883120313EB
:102F1000C70083160313220883120313C600831607
:102F20000313210883120313C5008316031320081B
:102F300083120313C4000A168A113D220A168A114D
:102F4000831203134508ED004408EC006430F300DD
:102F50000030F4006D08F6006C08F5000A168A15BA
:102F60008D260A168A11740883120313ED00730864
:102F7000EC006C08EA026D08031CEB03EB027630F0
:102F800083120313A0008030A1000A168A1574274B
:102F90000A168A11831203136B08803AFF008030EF
:102FA0007F02031DD52F0A306A020318D82FD92FAC
:102FB000E42F903083120313A0008030A1000A1682
:102FC0008A1574270A168A11831203136B08AD0041
:102FD0006A08AC000A30AE000030AF00AC300A1610
:102FE0008A15B2260A168A11AC3083120313A00088
:102FF0000030A1000A168A1574270A168A110800E3
:103BD000F60083120313081176080A168A150226C6
:103BE0000A168A158312031388150B30F50062300C
:103BF000F400F40BF92DF50BF92D000083120313DB
:103C000088110800F300731C062E072E0B2E83125A
:103C1000031308160E2E831203130812F31C112E21
:103C2000122E142E8816152E8812731D182E192E7A
:103C30001B2E08171C2E0813F31D1F2E202E222EBC
:103C40008817232E8813080073037404031D292E7C
:103C50002A2E312E0F30F5007508831203138505C7
:103C6000452E023073067404031D372E382E3F2E66
:103C7000F030F5007508831203138605452E0F30CA
:103C8000F50075088312031387050800703083164A
:103C900003138F040F308500403086000830870002
:103CA00003308800890101308316031788008901D9
:103CB00083120313850186018701890190308316E1
:103CC00003139F00C130831203139F00C3309F056D
:103CD0000800803083120313B3063708A3003608A8
:103CE000A2003508A1003408A0003308A70032085C
:103CF000A6003108A5003008A4000A128A150F2278
:103D00000A168A15831203132308B3002208B2008F
:103D10002108B1002008B0000800F701F801731C69
:103D2000922E932E992E7508F7070318F80A760835
:103D3000F80701300310F50DF60DFF3E031D9A2E16
:103D400001300310F40CF30CFF3E031DA12E730889
:103D50007404031DAC2EAD2E8F2E7808F400770866
:103D6000F300080083120313B200AD1FB82EB92E62
:103D7000C92E2D30B0003208840030088313800033
:103D80000130B0003008B207AC09AD09AC0A031924
:103D9000AD0A2D08A4002C08A3002F08A6002E08A9
:103DA000A50032080A168A11CB210A168A150800C6
:103DB00083120313A400A001A1017308F500F6010A
:103DC0007508A2007608A300241CE72EE82EEE2E2C
:103DD0002208A0070318A10A2308A1070130031035
:103DE000A20DA30DFF3E031DEF2E0310A40C24080B
:103DF000031DFB2EFC2EE42E2108F4002008F30006
:103E00000800F70077080F39F4007408F500770808
:103E1000F039F4007408F6008312031308157608CD
:103E2000F40004300310F40CFF3E031D122F74083D
:103E30000A168A1502260A168A1583120313881594
:103E40001A30F400F40B222F0000831203138811A0
:103E500075080A168A1502260A168A158312031394
:103E600088151A30F400F40B332F0000831203136B
:103E7000881108007308740403193F2F402F6F2F17
:103E8000F801F80A4E2F01300310F30DF40DFF3E38
:103E9000031D442F0130F7007708F807F41F512F56
:103EA000522F432F74087602031D582F7308750292
:103EB000031C5B2F5C2F622F7308F5027408031C30
:103EC000F603F60201300310F40CF30CFF3E031D61
:103ED000632F0130F802031D6E2F6F2F522F7608CB
:103EE000F4007508F300080083120313A501A6016E
:103EF0009D2F25082007A3002108A2000318A20A6D
:103F0000A51F832FA203831203132208A4002408F1
:103F1000FF00230884000A168A1100200A168A1559
:103F20000A168A1501270A168A150130831203130F
:103F3000A5070318A60A0030A60725082007A30036
:103F40002108A2000318A20AA51FA72FA20383120B
:103F500003132208A4002408FF00230884000A1683
:103F60008A1100200A168A15003A031DB82FB92FAE
:103F7000792F080083120313A101A20173087404AE
:103F80000319C32FC42FFB2FA001A00AD22F013089
:103F90000310F30DF40DFF3E031DC82F0130F70091
:103FA0007708A007F41FD52FD62FC72F0130031095
:103FB000A10DA20DFF3E031DD72F74087602031D2D
:103FC000E32F73087502031CE62FE72FEE2F73080B
:103FD000F5027408031CF603F602211401300310E5
:103FE000F40CF30CFF3E031DEF2F0130A002031D64
:103FF000FA2FFB2FD62F2208F4002108F300080027
:04400E00F4E0FFFFDC
:00000001FF
